{
  "contractName": "MultiSig",
  "abi": [
    {
      "constant": true,
      "inputs": [
        {
          "name": "",
          "type": "address"
        }
      ],
      "name": "contributionsMap",
      "outputs": [
        {
          "name": "",
          "type": "uint256"
        }
      ],
      "payable": false,
      "stateMutability": "view",
      "type": "function"
    },
    {
      "constant": true,
      "inputs": [
        {
          "name": "",
          "type": "address"
        }
      ],
      "name": "signerList",
      "outputs": [
        {
          "name": "",
          "type": "bool"
        }
      ],
      "payable": false,
      "stateMutability": "view",
      "type": "function"
    },
    {
      "constant": true,
      "inputs": [],
      "name": "availableContributions",
      "outputs": [
        {
          "name": "",
          "type": "uint256"
        }
      ],
      "payable": false,
      "stateMutability": "view",
      "type": "function"
    },
    {
      "inputs": [],
      "payable": false,
      "stateMutability": "nonpayable",
      "type": "constructor"
    },
    {
      "payable": true,
      "stateMutability": "payable",
      "type": "fallback"
    },
    {
      "anonymous": false,
      "inputs": [
        {
          "indexed": true,
          "name": "_contributor",
          "type": "address"
        },
        {
          "indexed": false,
          "name": "_valueInWei",
          "type": "uint256"
        }
      ],
      "name": "ReceivedContribution",
      "type": "event"
    },
    {
      "anonymous": false,
      "inputs": [
        {
          "indexed": true,
          "name": "_beneficiary",
          "type": "address"
        },
        {
          "indexed": false,
          "name": "_valueInWei",
          "type": "uint256"
        }
      ],
      "name": "ProposalSubmitted",
      "type": "event"
    },
    {
      "anonymous": false,
      "inputs": [
        {
          "indexed": true,
          "name": "_approver",
          "type": "address"
        },
        {
          "indexed": true,
          "name": "_beneficiary",
          "type": "address"
        },
        {
          "indexed": false,
          "name": "_valueInWei",
          "type": "uint256"
        }
      ],
      "name": "ProposalApproved",
      "type": "event"
    },
    {
      "anonymous": false,
      "inputs": [
        {
          "indexed": true,
          "name": "_rejecter",
          "type": "address"
        },
        {
          "indexed": true,
          "name": "_beneficiary",
          "type": "address"
        },
        {
          "indexed": false,
          "name": "_valueInWei",
          "type": "uint256"
        }
      ],
      "name": "ProposalRejected",
      "type": "event"
    },
    {
      "anonymous": false,
      "inputs": [
        {
          "indexed": true,
          "name": "_beneficiary",
          "type": "address"
        },
        {
          "indexed": false,
          "name": "_valueInWei",
          "type": "uint256"
        }
      ],
      "name": "WithdrawPerformed",
      "type": "event"
    },
    {
      "constant": true,
      "inputs": [
        {
          "name": "_beneficiary",
          "type": "address"
        }
      ],
      "name": "isProposalClosed",
      "outputs": [
        {
          "name": "",
          "type": "bool"
        }
      ],
      "payable": false,
      "stateMutability": "view",
      "type": "function"
    },
    {
      "constant": true,
      "inputs": [],
      "name": "owner",
      "outputs": [
        {
          "name": "",
          "type": "address"
        }
      ],
      "payable": false,
      "stateMutability": "view",
      "type": "function"
    },
    {
      "constant": false,
      "inputs": [],
      "name": "endContributionPeriod",
      "outputs": [],
      "payable": false,
      "stateMutability": "nonpayable",
      "type": "function"
    },
    {
      "constant": true,
      "inputs": [],
      "name": "listContributors",
      "outputs": [
        {
          "name": "",
          "type": "address[]"
        }
      ],
      "payable": false,
      "stateMutability": "view",
      "type": "function"
    },
    {
      "constant": true,
      "inputs": [
        {
          "name": "_contributor",
          "type": "address"
        }
      ],
      "name": "getContributorAmount",
      "outputs": [
        {
          "name": "",
          "type": "uint256"
        }
      ],
      "payable": false,
      "stateMutability": "view",
      "type": "function"
    },
    {
      "constant": true,
      "inputs": [],
      "name": "getContractStatus",
      "outputs": [
        {
          "name": "",
          "type": "bool"
        }
      ],
      "payable": false,
      "stateMutability": "view",
      "type": "function"
    },
    {
      "constant": true,
      "inputs": [],
      "name": "getTotalContributions",
      "outputs": [
        {
          "name": "",
          "type": "uint256"
        }
      ],
      "payable": false,
      "stateMutability": "view",
      "type": "function"
    },
    {
      "constant": false,
      "inputs": [
        {
          "name": "_valueInWei",
          "type": "uint256"
        }
      ],
      "name": "submitProposal",
      "outputs": [],
      "payable": false,
      "stateMutability": "nonpayable",
      "type": "function"
    },
    {
      "constant": false,
      "inputs": [
        {
          "name": "_beneficiary",
          "type": "address"
        }
      ],
      "name": "approve",
      "outputs": [],
      "payable": false,
      "stateMutability": "nonpayable",
      "type": "function"
    },
    {
      "constant": false,
      "inputs": [
        {
          "name": "_beneficiary",
          "type": "address"
        }
      ],
      "name": "reject",
      "outputs": [],
      "payable": false,
      "stateMutability": "nonpayable",
      "type": "function"
    },
    {
      "constant": false,
      "inputs": [
        {
          "name": "_valueInWei",
          "type": "uint256"
        }
      ],
      "name": "withdraw",
      "outputs": [],
      "payable": false,
      "stateMutability": "nonpayable",
      "type": "function"
    },
    {
      "constant": true,
      "inputs": [
        {
          "name": "_signer",
          "type": "address"
        },
        {
          "name": "_beneficiary",
          "type": "address"
        }
      ],
      "name": "getSignerVote",
      "outputs": [
        {
          "name": "",
          "type": "uint256"
        }
      ],
      "payable": false,
      "stateMutability": "view",
      "type": "function"
    },
    {
      "constant": true,
      "inputs": [],
      "name": "listOpenBeneficiariesProposals",
      "outputs": [
        {
          "name": "",
          "type": "address[]"
        }
      ],
      "payable": false,
      "stateMutability": "view",
      "type": "function"
    },
    {
      "constant": true,
      "inputs": [
        {
          "name": "_beneficiary",
          "type": "address"
        }
      ],
      "name": "getBeneficiaryProposal",
      "outputs": [
        {
          "name": "",
          "type": "uint256"
        }
      ],
      "payable": false,
      "stateMutability": "view",
      "type": "function"
    }
  ],
  "bytecode": "0x608060405234801561001057600080fd5b50336000806101000a81548173ffffffffffffffffffffffffffffffffffffffff021916908373ffffffffffffffffffffffffffffffffffffffff16021790555060008060146101000a81548160ff02191690831515021790555060016006600073579b27187c67e560dc5a7355533153313af7a50373ffffffffffffffffffffffffffffffffffffffff1673ffffffffffffffffffffffffffffffffffffffff16815260200190815260200160002060006101000a81548160ff021916908315150217905550600160066000738a7c7133f993da35a57bc0f1fe8c55b0f98902c673ffffffffffffffffffffffffffffffffffffffff1673ffffffffffffffffffffffffffffffffffffffff16815260200190815260200160002060006101000a81548160ff0219169083151502179055506001600660007309c0d15e6d9f1097bd565435fc366a261c2d519473ffffffffffffffffffffffffffffffffffffffff1673ffffffffffffffffffffffffffffffffffffffff16815260200190815260200160002060006101000a81548160ff0219169083151502179055506101d260036001546102ae64010000000002610807179091906401000000009004565b600181905550600a608060405190810160405280600081526020013373ffffffffffffffffffffffffffffffffffffffff16815260200160015481526020016000815250908060018154018082558091505090600182039060005260206000209060050201600090919290919091506000820151816000015560208201518160010160006101000a81548173ffffffffffffffffffffffffffffffffffffffff021916908373ffffffffffffffffffffffffffffffffffffffff16021790555060408201518160020155606082015181600301555050506102ca565b600081830190508281101515156102c157fe5b80905092915050565b611a3e806102d96000396000f3006080604052600436106100f1576000357c0100000000000000000000000000000000000000000000000000000000900463ffffffff16806302b110821461032a578063237819fe146103415780632e1a7d4d146103ad5780632e518464146103da57806342fd96b41461043157806346fd1df11461048857806359109b64146104e3578063736d95aa1461054f57806386b81eb61461057c5780638da5cb5b146105f3578063ab0da5a91461064a578063c032846b1461068d578063c651aada146106bc578063daea85c514610713578063ddf556d014610756578063ea32ab5514610781578063fc4bae3d146107ac575b60008060001515600060149054906101000a900460ff16151514151561011657600080fd5b60003411151561012557600080fd5b61017734600560003373ffffffffffffffffffffffffffffffffffffffff1673ffffffffffffffffffffffffffffffffffffffff1681526020019081526020016000205461080790919063ffffffff16565b600560003373ffffffffffffffffffffffffffffffffffffffff1673ffffffffffffffffffffffffffffffffffffffff168152602001908152602001600020819055506101cf3460035461080790919063ffffffff16565b60038190555060009150600090505b60098054905081101561026a573373ffffffffffffffffffffffffffffffffffffffff1660098281548110151561021157fe5b9060005260206000200160009054906101000a900473ffffffffffffffffffffffffffffffffffffffff1673ffffffffffffffffffffffffffffffffffffffff16141561025d57600191505b80806001019150506101de565b8115156102d85760093390806001815401808255809150509060018203906000526020600020016000909192909190916101000a81548173ffffffffffffffffffffffffffffffffffffffff021916908373ffffffffffffffffffffffffffffffffffffffff160217905550505b3373ffffffffffffffffffffffffffffffffffffffff167f4af4040804455d5519363ab32562d3354dc05571e414cec4d799a581d6e6b3a7346040518082815260200191505060405180910390a25050005b34801561033657600080fd5b5061033f610823565b005b34801561034d57600080fd5b5061035661093d565b6040518080602001828103825283818151815260200191508051906020019060200280838360005b8381101561039957808201518184015260208101905061037e565b505050509050019250505060405180910390f35b3480156103b957600080fd5b506103d8600480360381019080803590602001909291905050506109cb565b005b3480156103e657600080fd5b5061041b600480360381019080803573ffffffffffffffffffffffffffffffffffffffff169060200190929190505050610b6a565b6040518082815260200191505060405180910390f35b34801561043d57600080fd5b50610472600480360381019080803573ffffffffffffffffffffffffffffffffffffffff169060200190929190505050610bb3565b6040518082815260200191505060405180910390f35b34801561049457600080fd5b506104c9600480360381019080803573ffffffffffffffffffffffffffffffffffffffff169060200190929190505050610bcb565b604051808215151515815260200191505060405180910390f35b3480156104ef57600080fd5b506104f8610beb565b6040518080602001828103825283818151815260200191508051906020019060200280838360005b8381101561053b578082015181840152602081019050610520565b505050509050019250505060405180910390f35b34801561055b57600080fd5b5061057a60048036038101908080359060200190929190505050610de4565b005b34801561058857600080fd5b506105dd600480360381019080803573ffffffffffffffffffffffffffffffffffffffff169060200190929190803573ffffffffffffffffffffffffffffffffffffffff169060200190929190505050611022565b6040518082815260200191505060405180910390f35b3480156105ff57600080fd5b506106086110c9565b604051808273ffffffffffffffffffffffffffffffffffffffff1673ffffffffffffffffffffffffffffffffffffffff16815260200191505060405180910390f35b34801561065657600080fd5b5061068b600480360381019080803573ffffffffffffffffffffffffffffffffffffffff1690602001909291905050506110f2565b005b34801561069957600080fd5b506106a2611439565b604051808215151515815260200191505060405180910390f35b3480156106c857600080fd5b506106fd600480360381019080803573ffffffffffffffffffffffffffffffffffffffff16906020019092919050505061144f565b6040518082815260200191505060405180910390f35b34801561071f57600080fd5b50610754600480360381019080803573ffffffffffffffffffffffffffffffffffffffff1690602001909291905050506114b8565b005b34801561076257600080fd5b5061076b611885565b6040518082815260200191505060405180910390f35b34801561078d57600080fd5b5061079661188f565b6040518082815260200191505060405180910390f35b3480156107b857600080fd5b506107ed600480360381019080803573ffffffffffffffffffffffffffffffffffffffff169060200190929190505050611895565b604051808215151515815260200191505060405180910390f35b6000818301905082811015151561081a57fe5b80905092915050565b60001515600060149054906101000a900460ff16151514151561084557600080fd5b600660003373ffffffffffffffffffffffffffffffffffffffff1673ffffffffffffffffffffffffffffffffffffffff16815260200190815260200160002060009054906101000a900460ff161515610906576040517f08c379a00000000000000000000000000000000000000000000000000000000081526004018080602001828103825260168152602001807f596f7520617265206e6f742061207369676e657221210000000000000000000081525060200191505060405180910390fd5b600060035411151561091757600080fd5b6003546004819055506001600060146101000a81548160ff021916908315150217905550565b606060098054806020026020016040519081016040528092919081815260200182805480156109c157602002820191906000526020600020905b8160009054906101000a900473ffffffffffffffffffffffffffffffffffffffff1673ffffffffffffffffffffffffffffffffffffffff1681526020019060010190808311610977575b5050505050905090565b60011515600060149054906101000a900460ff1615151415156109ed57600080fd5b8080600860003373ffffffffffffffffffffffffffffffffffffffff1673ffffffffffffffffffffffffffffffffffffffff1681526020019081526020016000205410151515610a3c57600080fd5b610a8e82600860003373ffffffffffffffffffffffffffffffffffffffff1673ffffffffffffffffffffffffffffffffffffffff168152602001908152602001600020546119ab90919063ffffffff16565b600860003373ffffffffffffffffffffffffffffffffffffffff1673ffffffffffffffffffffffffffffffffffffffff168152602001908152602001600020819055503373ffffffffffffffffffffffffffffffffffffffff166108fc839081150290604051600060405180830381858888f19350505050158015610b17573d6000803e3d6000fd5b503373ffffffffffffffffffffffffffffffffffffffff167ffca010261c61503eba494501406a4775d0887b49857dc75c92d1cc92a20e4e83836040518082815260200191505060405180910390a25050565b6000600560008373ffffffffffffffffffffffffffffffffffffffff1673ffffffffffffffffffffffffffffffffffffffff168152602001908152602001600020549050919050565b60056020528060005260406000206000915090505481565b60066020528060005260406000206000915054906101000a900460ff1681565b60608060008060006060600a80549050604051908082528060200260200182016040528015610c295781602001602082028038833980820191505090505b50945060009350600192505b600a80549050831015610d2b57600a83815481101515610c5157fe5b90600052602060002090600502019150610c7760026001546119c490919063ffffffff16565b826003015411158015610ca35750610c9b60026001546119c490919063ffffffff16565b826002015411155b15610d1e578160010160009054906101000a900473ffffffffffffffffffffffffffffffffffffffff168585806001019650815181101515610ce157fe5b9060200190602002019073ffffffffffffffffffffffffffffffffffffffff16908173ffffffffffffffffffffffffffffffffffffffff16815250505b8280600101935050610c35565b83604051908082528060200260200182016040528015610d5a5781602001602082028038833980820191505090505b509050600092505b83831015610dd9578483815181101515610d7857fe5b906020019060200201518184815181101515610d9057fe5b9060200190602002019073ffffffffffffffffffffffffffffffffffffffff16908173ffffffffffffffffffffffffffffffffffffffff16815250508280600101935050610d62565b809550505050505090565b60011515600060149054906101000a900460ff161515141515610e0657600080fd5b6000600760003373ffffffffffffffffffffffffffffffffffffffff1673ffffffffffffffffffffffffffffffffffffffff168152602001908152602001600020541480610e595750610e5833611895565b5b1515610e6457600080fd5b80600354610e7c600a836119da90919063ffffffff16565b11151515610e8957600080fd5b6004548111151515610e9a57600080fd5b600a6080604051908101604052808481526020013373ffffffffffffffffffffffffffffffffffffffff168152602001600081526020016000815250908060018154018082558091505090600182039060005260206000209060050201600090919290919091506000820151816000015560208201518160010160006101000a81548173ffffffffffffffffffffffffffffffffffffffff021916908373ffffffffffffffffffffffffffffffffffffffff16021790555060408201518160020155606082015181600301555050506001600a8054905003600760003373ffffffffffffffffffffffffffffffffffffffff1673ffffffffffffffffffffffffffffffffffffffff16815260200190815260200160002081905550610fca826004546119ab90919063ffffffff16565b6004819055503373ffffffffffffffffffffffffffffffffffffffff167f9502d7618553b38b99edbe5d1547756cc9ab18db5ddd0674b051490ca4e2fb4c836040518082815260200191505060405180910390a25050565b6000600a600760008473ffffffffffffffffffffffffffffffffffffffff1673ffffffffffffffffffffffffffffffffffffffff1681526020019081526020016000205481548110151561107257fe5b906000526020600020906005020160040160008473ffffffffffffffffffffffffffffffffffffffff1673ffffffffffffffffffffffffffffffffffffffff16815260200190815260200160002054905092915050565b60008060009054906101000a900473ffffffffffffffffffffffffffffffffffffffff16905090565b600060011515600060149054906101000a900460ff16151514151561111657600080fd5b600660003373ffffffffffffffffffffffffffffffffffffffff1673ffffffffffffffffffffffffffffffffffffffff16815260200190815260200160002060009054906101000a900460ff1615156111d7576040517f08c379a00000000000000000000000000000000000000000000000000000000081526004018080602001828103825260168152602001807f596f7520617265206e6f742061207369676e657221210000000000000000000081525060200191505060405180910390fd5b816000600760008373ffffffffffffffffffffffffffffffffffffffff1673ffffffffffffffffffffffffffffffffffffffff1681526020019081526020016000205411151561122657600080fd5b6000600a600760008473ffffffffffffffffffffffffffffffffffffffff1673ffffffffffffffffffffffffffffffffffffffff1681526020019081526020016000205481548110151561127657fe5b906000526020600020906005020160040160003373ffffffffffffffffffffffffffffffffffffffff1673ffffffffffffffffffffffffffffffffffffffff168152602001908152602001600020541415156112d157600080fd5b600a600760008573ffffffffffffffffffffffffffffffffffffffff1673ffffffffffffffffffffffffffffffffffffffff1681526020019081526020016000205481548110151561131f57fe5b9060005260206000209060050201915060028260040160003373ffffffffffffffffffffffffffffffffffffffff1673ffffffffffffffffffffffffffffffffffffffff1681526020019081526020016000208190555081600301600081548092919060010191905055506113a060026001546119c490919063ffffffff16565b826003015411156113cb576113c4826000015460045461080790919063ffffffff16565b6004819055505b8273ffffffffffffffffffffffffffffffffffffffff163373ffffffffffffffffffffffffffffffffffffffff167ff810df3b626605dbc005192086f67ae1f96ccb46b942d17dc90f159a1018298e84600001546040518082815260200191505060405180910390a3505050565b60008060149054906101000a900460ff16905090565b6000600a600760008473ffffffffffffffffffffffffffffffffffffffff1673ffffffffffffffffffffffffffffffffffffffff1681526020019081526020016000205481548110151561149f57fe5b9060005260206000209060050201600001549050919050565b600060011515600060149054906101000a900460ff1615151415156114dc57600080fd5b600660003373ffffffffffffffffffffffffffffffffffffffff1673ffffffffffffffffffffffffffffffffffffffff16815260200190815260200160002060009054906101000a900460ff16151561159d576040517f08c379a00000000000000000000000000000000000000000000000000000000081526004018080602001828103825260168152602001807f596f7520617265206e6f742061207369676e657221210000000000000000000081525060200191505060405180910390fd5b816000600760008373ffffffffffffffffffffffffffffffffffffffff1673ffffffffffffffffffffffffffffffffffffffff168152602001908152602001600020541115156115ec57600080fd5b6000600a600760008473ffffffffffffffffffffffffffffffffffffffff1673ffffffffffffffffffffffffffffffffffffffff1681526020019081526020016000205481548110151561163c57fe5b906000526020600020906005020160040160003373ffffffffffffffffffffffffffffffffffffffff1673ffffffffffffffffffffffffffffffffffffffff1681526020019081526020016000205414151561169757600080fd5b600a600760008573ffffffffffffffffffffffffffffffffffffffff1673ffffffffffffffffffffffffffffffffffffffff168152602001908152602001600020548154811015156116e557fe5b9060005260206000209060050201915060018260040160003373ffffffffffffffffffffffffffffffffffffffff1673ffffffffffffffffffffffffffffffffffffffff168152602001908152602001600020819055506117546001836002015461080790919063ffffffff16565b826002018190555061177260026001546119c490919063ffffffff16565b82600201541115611817576117d38260000154600860008673ffffffffffffffffffffffffffffffffffffffff1673ffffffffffffffffffffffffffffffffffffffff1681526020019081526020016000205461080790919063ffffffff16565b600860008573ffffffffffffffffffffffffffffffffffffffff1673ffffffffffffffffffffffffffffffffffffffff168152602001908152602001600020819055505b8273ffffffffffffffffffffffffffffffffffffffff163373ffffffffffffffffffffffffffffffffffffffff167f6785be290ed8ae6f56ea596a5b8b77b39d1c96fa2f2d17de1c58be88bb67af4d84600001546040518082815260200191505060405180910390a3505050565b6000600354905090565b60045481565b60006118ad60026001546119c490919063ffffffff16565b600a600760008573ffffffffffffffffffffffffffffffffffffffff1673ffffffffffffffffffffffffffffffffffffffff168152602001908152602001600020548154811015156118fb57fe5b906000526020600020906005020160030154111561191c57600190506119a6565b61193260026001546119c490919063ffffffff16565b600a600760008573ffffffffffffffffffffffffffffffffffffffff1673ffffffffffffffffffffffffffffffffffffffff1681526020019081526020016000205481548110151561198057fe5b90600052602060002090600502016002015411156119a157600190506119a6565b600090505b919050565b60008282111515156119b957fe5b818303905092915050565b600081838115156119d157fe5b04905092915050565b6000808314156119ed5760009050611a0c565b81830290508183828115156119fe57fe5b04141515611a0857fe5b8090505b929150505600a165627a7a7230582081eae919e19c5487a62fca44016aa2436660af6774c911f947f26512299a80170029",
  "source": "pragma solidity ^0.4.20;\n\ncontract MultiSig {\n  using SafeMath for uint256;\n\n  // Variables\n  address private contractOwner;\n  bool private isContractActive;\n  uint private signerCount;\n  uint private contributorCount;\n  uint private totalContributions;\n  uint public availableContributions;\n  \n  mapping (address => uint) public contributionsMap;\n  mapping (address => bool) public signerList;\n  mapping(address => uint) _beneficiaryProposalIndex;  \n  mapping (address => uint) amountToWithdraw;\n  address[] contributorsList;\n  Proposal[] proposals;\n\n    struct Proposal {\n        uint _valueInWei;\n        address _beneficiary;\n        uint approvalCount;\n        uint rejectedCount;\n        mapping (address => uint) sigatures;\n    }\n\n  // Constructor\n  constructor () public {\n    contractOwner = msg.sender;\n    isContractActive = false;\n    \n    \n    signerList[0x579B27187c67e560DC5a7355533153313af7A503] = true;\n    signerList[0x8A7c7133F993da35a57bc0f1FE8c55B0F98902c6] = true;\n    signerList[0x09C0D15e6d9f1097BD565435FC366a261C2d5194] = true;\n    \n    signerCount = signerCount.add(3);\n    \n    proposals.push(Proposal(0, msg.sender, signerCount, 0));\n  }\n\n  // Events\n  event ReceivedContribution(address indexed _contributor, uint _valueInWei);\n  event ProposalSubmitted(address indexed _beneficiary, uint _valueInWei);\n  event ProposalApproved(address indexed _approver, address indexed _beneficiary, uint _valueInWei);\n  event ProposalRejected(address indexed _rejecter, address indexed _beneficiary, uint _valueInWei);\n  event WithdrawPerformed(address indexed _beneficiary, uint _valueInWei);\n\n  // Modifiers\n  modifier onlyifContractStatusActive() {\n    require(isContractActive == true);\n    _;\n  }\n  modifier acceptContributions() {\n    require(isContractActive == false);\n    _;\n  }\n  modifier onlySigner() {\n    require(signerList[msg.sender], \"You are not a signer!!\");\n    _;\n  }\n  \n  modifier onlyIfValueAllowed(uint _amount) {\n        require(_amount.mul(10) <= totalContributions);\n        require(_amount <= availableContributions);\n     _;   \n    }\n    \n    modifier onlyIfNoOpenProposal() {\n          require(_beneficiaryProposalIndex[msg.sender] == 0 || isProposalClosed(msg.sender));\n        _;\n    }\n    \n    modifier onlyIfNotVoted(address _beneficiary) {\n        require(_beneficiaryProposalIndex[_beneficiary] > 0);\n        require(proposals[_beneficiaryProposalIndex[_beneficiary]].sigatures[msg.sender] == 0);\n        _;\n    }\n    \n    modifier onlyIfWithdrawable(uint _amountToWithdraw) {        \n          require(amountToWithdraw[msg.sender] >= _amountToWithdraw);\n        _;\n    }\n    \n    function isProposalClosed(address _beneficiary) public view returns (bool) {\n        if(proposals[_beneficiaryProposalIndex[_beneficiary]].rejectedCount > signerCount.div(2)) {\n            return true;\n        }\n        if(proposals[_beneficiaryProposalIndex[_beneficiary]].approvalCount > signerCount.div(2)) {\n            return true;\n        }   \n        return false;     \n    }\n    \n\nfunction owner() external view returns(address){\n  return contractOwner;\n}\n\nfunction () payable public acceptContributions {\n  require(msg.value > 0);\n   contributionsMap[msg.sender] = contributionsMap[msg.sender].add(msg.value);\n   totalContributions = totalContributions.add(msg.value);\n  bool alreadyExists = false;\n  for(uint i = 0; i< contributorsList.length; i++){\n      if(contributorsList[i] == msg.sender){\n        alreadyExists = true;\n      }\n  }\n  if(!alreadyExists){\n    contributorsList.push(msg.sender);\n  }\n   emit ReceivedContribution(msg.sender, msg.value);\n}\n\nfunction endContributionPeriod() acceptContributions onlySigner external {\n    require(totalContributions > 0);\n    availableContributions = totalContributions;\n    isContractActive = true;\n}\n\nfunction listContributors() external view returns (address[]) {\n     return contributorsList;\n}\n\nfunction getContributorAmount(address _contributor) external view returns (uint) {\n     return contributionsMap[_contributor];\n}\n\nfunction getContractStatus() external view returns (bool) {\n     return isContractActive;\n}\n\nfunction getTotalContributions() external view returns (uint) {\n     return totalContributions;\n}\n\nfunction submitProposal(uint _valueInWei) external onlyifContractStatusActive onlyIfNoOpenProposal onlyIfValueAllowed(_valueInWei) {\n   proposals.push(Proposal(_valueInWei, msg.sender, 0, 0));\n  _beneficiaryProposalIndex[msg.sender] = proposals.length - 1;\n  availableContributions = availableContributions.sub(_valueInWei);\n  emit ProposalSubmitted(msg.sender, _valueInWei);\n}\n    \nfunction approve(address _beneficiary) external onlyifContractStatusActive onlySigner onlyIfNotVoted(_beneficiary) {\n    Proposal storage p = proposals[_beneficiaryProposalIndex[_beneficiary]];\n    p.sigatures[msg.sender] = 1;  \n    p.approvalCount = p.approvalCount.add(1);\n\n    if(p.approvalCount > signerCount.div(2)) {\n      amountToWithdraw[_beneficiary] = amountToWithdraw[_beneficiary].add(p._valueInWei);\n    }\n    emit ProposalApproved(msg.sender, _beneficiary, p._valueInWei);\n}\n    \n    function reject(address _beneficiary) external onlyifContractStatusActive onlySigner onlyIfNotVoted(_beneficiary) {\n        Proposal storage p = proposals[_beneficiaryProposalIndex[_beneficiary]];\n        p.sigatures[msg.sender] = 2;\n        p.rejectedCount++;\n        \n        if(p.rejectedCount > signerCount.div(2)) {\n            availableContributions = availableContributions.add(p._valueInWei);\n        }\n        emit ProposalRejected(msg.sender, _beneficiary, p._valueInWei);\n    }\n  \n    function withdraw(uint _valueInWei) external onlyifContractStatusActive onlyIfWithdrawable(_valueInWei) {\n        amountToWithdraw[msg.sender] = amountToWithdraw[msg.sender].sub(_valueInWei);        \n        msg.sender.transfer(_valueInWei);\n        emit WithdrawPerformed(msg.sender, _valueInWei);\n    }\n    \n    function getSignerVote(address _signer, address _beneficiary) view external returns(uint) {\n        return proposals[_beneficiaryProposalIndex[_beneficiary]].sigatures[_signer];\n    }\n\nfunction listOpenBeneficiariesProposals() external view returns (address[]) {\n    address[] memory openBeneficiaries = new address[](proposals.length);\n    uint j=0;\n    for(uint i=1; i < proposals.length;i++) {\n        Proposal storage p = proposals[i];\n        if(p.rejectedCount <= signerCount.div(2) && p.approvalCount <= signerCount.div(2)) {\n            openBeneficiaries[j++] = p._beneficiary;\n        }\n    }\n    \n    address[] memory openBeneficiariesActual = new address[](j);\n    for(i=0;i<j;i++){\n        openBeneficiariesActual[i] = openBeneficiaries[i];\n    }\n    \n     return openBeneficiariesActual;\n}\n\n   function getBeneficiaryProposal(address _beneficiary) external view returns (uint) {\n     return proposals[_beneficiaryProposalIndex[_beneficiary]]._valueInWei;\n   }\n\n}\n\n/**\n * @title SafeMath\n * @dev Math operations with safety checks that throw on error\n */\nlibrary SafeMath {\n\n  /**\n  * @dev Multiplies two numbers, throws on overflow.\n  */\n  function mul(uint256 a, uint256 b) internal pure returns (uint256 c) {\n    // Gas optimization: this is cheaper than asserting 'a' not being zero, but the\n    // benefit is lost if 'b' is also tested.\n    // See: https://github.com/OpenZeppelin/openzeppelin-solidity/pull/522\n    if (a == 0) {\n      return 0;\n    }\n\n    c = a * b;\n    assert(c / a == b);\n    return c;\n  }\n\n  /**\n  * @dev Integer division of two numbers, truncating the quotient.\n  */\n  function div(uint256 a, uint256 b) internal pure returns (uint256) {\n    // assert(b > 0); // Solidity automatically throws when dividing by 0\n    // uint256 c = a / b;\n    // assert(a == b * c + a % b); // There is no case in which this doesn't hold\n    return a / b;\n  }\n\n  /**\n  * @dev Subtracts two numbers, throws on overflow (i.e. if subtrahend is greater than minuend).\n  */\n  function sub(uint256 a, uint256 b) internal pure returns (uint256) {\n    assert(b <= a);\n    return a - b;\n  }\n\n  /**\n  * @dev Adds two numbers, throws on overflow.\n  */\n  function add(uint256 a, uint256 b) internal pure returns (uint256 c) {\n    c = a + b;\n    assert(c >= a);\n    return c;\n  }\n}",
  "sourcePath": "/Users/vmankena/Documents/blockchain-git/MultisigWalletDapp/contracts/MultiSig.sol",
  "compiler": {
    "name": "solc",
    "version": "0.4.24+commit.e67f0147.Emscripten.clang"
  },
  "schemaVersion": "2.0.0",
  "updatedAt": "2018-07-11T05:58:01.716Z"
}